:100000000C9462000C94A2030C947B030C948A0061
:100010000C948A000C948A000C948A000C948A0038
:100020000C948A000C948A000C948A000C948A0028
:100030000C948A000C948A000C948A000C948A0018
:100040000C9431030C948A000C94FF020C94D90296
:100050000C948A000C948A000C948A000C948A00F8
:100060000C948A000C948A000000000024002700F1
:100070002A0000000000250028002B0000000000DE
:1000800023002600290004040404040404040202DA
:100090000202020203030303030301020408102007
:1000A0004080010204081020010204081020000012
:1000B0000008000201000003040700000000000027
:1000C0000000120711241FBECFEFD8E0DEBFCDBF66
:1000D00011E0A0E0B1E0E6EBF2E102C005900D9284
:1000E000A438B107D9F722E0A4E8B1E001C01D921D
:1000F000AA34B207E1F710E0C2E6D0E004C02197CD
:10010000FE010E945309C136D107C9F70E94C903F5
:100110000C9459090C9400008091970190919801DA
:10012000019690939801809397010895AF92BF92A2
:10013000CF92DF92EF92FF920F931F93CF93DF93B3
:100140006C017B018B01040F151FEB015E01AE18E2
:10015000BF08C017D10759F06991D601ED91FC9104
:100160000190F081E02DC6010995892B79F7C50131
:10017000DF91CF911F910F91FF90EF90DF90CF9083
:10018000BF90AF900895FC01538D448D252F30E032
:10019000842F90E0821B930B541710F0CF96089594
:1001A00001970895FC01918D828D981761F0A28DC1
:1001B000AE0FBF2FB11D5D968C91928D9F5F9F7387
:1001C000928F90E008958FEF9FEF0895FC01918D3D
:1001D000828D981731F0828DE80FF11D858D90E0AA
:1001E00008958FEF9FEF0895FC01918D228D892F47
:1001F00090E0805C9F4F821B91098F73992708952F
:100200008DEA91E00E94F40021E0892B09F420E0BE
:10021000822F089580E090E0892B29F00E94000150
:1002200081110C9400000895FC01A48DA80FB92F32
:10023000B11DA35ABF4F2C91848D90E001968F730E
:100240009927848FA689B7892C93A089B1898C912D
:10025000837080648C93938D848D981306C002887C
:10026000F389E02D80818F7D80830895EF92FF9246
:100270000F931F93CF93DF93EC0181E0888F9B8DC9
:100280008C8D98131AC0E889F989808185FF15C083
:100290009FB7F894EE89FF896083E889F9898081A6
:1002A0008370806480839FBF81E090E0DF91CF9175
:1002B0001F910F91FF90EF900895F62E0B8D10E097
:1002C0000F5F1F4F0F731127E02E8C8D8E110CC006
:1002D0000FB607FCFACFE889F989808185FFF5CF51
:1002E000CE010E941401F1CFEB8DEC0FFD2FF11D1B
:1002F000E35AFF4FF0829FB7F8940B8FEA89FB898E
:1003000080818062CFCFCF93DF93EC01888D8823EB
:10031000B9F0AA89BB89E889F9898C9185FD03C068
:10032000808186FD0DC00FB607FCF7CF8C9185FF4D
:10033000F2CF808185FFEDCFCE010E941401E9CF7D
:10034000DF91CF910895833081F028F4813099F0C6
:100350008230A9F008958730A9F08830C9F0843040
:10036000B1F4809180008F7D03C0809180008F77F1
:1003700080938000089584B58F7784BD089584B5F7
:100380008F7DFBCF8091B0008F778093B000089570
:100390008091B0008F7DF9CFCF93DF93282F30E08D
:1003A000F901E255FF4F8491F901E656FF4FD491D0
:1003B000F901EA57FF4FC491CC23A1F081110E94AB
:1003C000A301EC2FF0E0EE0FFF1FE458FF4FA591C3
:1003D000B491EC91ED2381E090E009F480E0DF91AD
:1003E000CF91089580E090E0FACF1F93CF93DF93F1
:1003F000282F30E0F901E255FF4F8491F901E656CC
:10040000FF4FD491F901EA57FF4FC491CC23A9F0D3
:10041000162F81110E94A301EC2FF0E0EE0FFF1FB9
:10042000EE58FF4FA591B4918FB7F894EC9111114C
:1004300008C0D095DE23DC938FBFDF91CF911F9151
:100440000895DE2BF8CFCF93DF9390E0FC01E656C2
:10045000FF4F24918A579F4FFC0184918823D1F04C
:1004600090E0880F991FFC01E859FF4FA591B491C6
:10047000FC01EE58FF4FC591D49161110EC09FB79A
:10048000F8948C91E22FE0958E238C932881E223BF
:10049000E8839FBFDF91CF9108958FB7F894EC91D7
:1004A000E22BEC938FBFF6CF3FB7F8948091850194
:1004B00090918601A0918701B091880126B5A89BF3
:1004C00005C02F3F19F00196A11DB11D3FBFBA2FE6
:1004D000A92F982F8827BC01CD01620F711D811DA6
:1004E000911D42E0660F771F881F991F4A95D1F72B
:1004F00008950895FC0101900020E9F73197AF01BC
:10050000481B590BBC018DEA91E00C9496008F9228
:100510009F92AF92BF920F931F93CF93DF93CDB76C
:10052000DEB7A1970FB6F894DEBF0FBECDBF19A2FC
:10053000423008F44AE08E010F5D1F4F842E912C4B
:10054000B12CA12CA50194010E941D09E62FB9012F
:10055000CA01EA30F4F4E05DD801EE938D01232B5B
:10056000242B252B79F790E080E0109719F0CD012E
:100570000E947A02A1960FB6F894DEBF0FBECDBFDF
:10058000DF91CF911F910F91BF90AF909F908F906F
:100590000895E95CE1CFCF93DF930E947A02EC01EA
:1005A00086E191E00E947A028C0F9D1FDF91CF912E
:1005B00008951F920F920FB60F9211242F933F931D
:1005C0004F935F936F937F938F939F93AF93BF935B
:1005D000EF93FF938DEA91E00E941401FF91EF9158
:1005E000BF91AF919F918F917F916F915F914F914B
:1005F0003F912F910F900FBE0F901F9018951F9253
:100600000F920FB60F9211242F938F939F93EF9316
:10061000FF93E091BD01F091BE018081E091C301A3
:10062000F091C40182FD1BC090818091C6018F5F53
:100630008F732091C701821741F0E091C601F0E06D
:10064000E355FE4F958F8093C601FF91EF919F91E7
:100650008F912F910F900FBE0F901F901895808152
:10066000F4CF1F920F920FB60F9211242F933F9346
:100670008F939F93AF93BF938091890190918A014B
:10068000A0918B01B0918C013091840123E0230F64
:100690002D3758F50196A11DB11D2093840180933B
:1006A000890190938A01A0938B01B0938C01809172
:1006B000850190918601A0918701B09188010196F2
:1006C000A11DB11D8093850190938601A0938701A0
:1006D000B0938801BF91AF919F918F913F912F91DE
:1006E0000F900FBE0F901F90189526E8230F0296CB
:1006F000A11DB11DD2CF1F920F920FB60F921124E0
:100700002F933F934F935F936F937F938F939F9319
:10071000AF93BF93EF93FF93E0910201F091030138
:100720000995FF91EF91BF91AF919F918F917F912B
:100730006F915F914F913F912F910F900FBE0F904E
:100740001F9018951F920F920FB60F9211242F939E
:100750003F934F935F936F937F938F939F93AF9349
:10076000BF93EF93FF93E0910001F0910101099590
:10077000FF91EF91BF91AF919F918F917F916F9179
:100780005F914F913F912F910F900FBE0F901F904F
:100790001895789484B5826084BD84B5816084BDE9
:1007A00085B5826085BD85B5816085BD80916E000F
:1007B000816080936E001092810080918100826040
:1007C000809381008091810081608093810080917D
:1007D00080008160809380008091B100846080936C
:1007E000B1008091B00081608093B00080917A0068
:1007F000846080937A0080917A00826080937A008E
:1008000080917A00816080937A0080917A0080687C
:1008100080937A001092C10060E082E00E9423027F
:1008200060E08EE00E94230260E08AE00E942302E2
:1008300061E088E00E94230261E089E00E942302D7
:1008400061E08BE00E9423028CE890E0909301012C
:100850008093000180916900836080936900E89A29
:100860008EE00E94CC019093A6018093A501E091B7
:10087000BD01F091BE0182E08083E091B901F09169
:10088000BA011082E091BB01F091BC018FEC808332
:100890001092C501E091C101F091C20186E0808310
:1008A000E091BF01F091C001808180618083E0917F
:1008B000BF01F091C001808188608083E091BF0119
:1008C000F091C001808180688083E091BF01F09148
:1008D000C00180818F7D808393E0292E312C22E01E
:1008E000822E912CC1E0D0E08AE00E94CC015C0114
:1008F0009093AC018093AB018EE00E94CC018C01FF
:100900009093AA018093A9010E9454022B013C01FB
:1009100085E0C82ED12CE12CF12C0E9454026419E0
:10092000750986099709683E734081059105A8F30A
:1009300021E0C21AD108E108F10838EE430E33E095
:10094000531E611C711CC114D104E104F10429F788
:100950008EE00E94CC019093A8018093A701AB2860
:10096000A1F50817190709F071C089E191E00E940B
:10097000CB022091A9013091AA018091A50190910B
:10098000A6012817390709F188E291E00E94CB02FD
:100990008091A9019091AA01892B79F48091A301FA
:1009A0009091A401009709F05FC1D093A401C09376
:1009B000A30182E391E00E94CB028091A901909172
:1009C000AA019093A6018093A5018091AB0190911B
:1009D000AC010197D9F52091A9013091AA0180912C
:1009E000A7019091A8012817390781F588E491E0C3
:1009F0000E94CB022091A9013091AA018091A5010A
:100A00009091A6012817390709F188E291E00E9428
:100A1000CB028091A9019091AA01892B79F4809150
:100A2000A3019091A401009709F030C13092A40174
:100A30002092A30188E591E00E94CB028091A90158
:100A40009091AA019093A6018093A5012FB7F894E5
:100A50008091890190918A01A0918B01B0918C01C4
:100A60002FBF80939D0190939E01A0939F01B0930F
:100A7000A0014091990150919A0160919B01709160
:100A80009C018C019D01041B150B260B370BB90132
:100A9000A801483E53406105710508F477C0809372
:100AA000990190939A01A0939B01B0939C0180912E
:100AB00097019091980164E170E00E9409092CE38C
:100AC000269FC001279F900D11249093960180933B
:100AD0009501072E000C880B990B0E94E2072CE968
:100AE00034EC40EA5DE30E949708609391017093B3
:100AF0009201809393019093940110929801109227
:100B0000970183E691E00E947A0288E691E00E94D4
:100B10007A02C0909501D09096010D2C000CEE0841
:100B2000FF084AE0C701B601F7FE0DC06DE28DEA8D
:100B300091E00E94360166277727CB016C197D0969
:100B40008E099F094AE00E9487028EE691E00E948A
:100B50007A0282E791E00E947A02C0909101D090DF
:100B60009201E0909301F0909401A7019601C701D2
:100B7000B6010E940409882309F494C088E791E033
:100B80000E947A0286E191E00E947A0280919D01A2
:100B900090919E01A0919F01B091A001209195019B
:100BA00030919601253631050CF01AC12091A30130
:100BB0003091A4012330310509F012C140918D011B
:100BC00050918E0160918F01709190018C019D0177
:100BD000041B150B260B370BB901A80148355B41E7
:100BE0006105710598F080938D0190938E01A0931B
:100BF0008F01B09390018091A1019091A201009783
:100C000009F0E2C0D093A201C093A1018091A30199
:100C10009091A401009709F0ECC060E088E00E9488
:100C2000F50160E089E00E94F50161E08BE00E943F
:100C3000F5018091A1019091A201019741F461E039
:100C40008BE00E94F50161E089E00E94F50120E05F
:100C500030E0232B09F448CE0E940001882309F4D8
:100C600043CE0E94000040CE8130910539F490922D
:100C7000A4018092A3018DE391E09DCE029709F03B
:100C80009CCE1092A4011092A30197CE039709F075
:100C9000D5CE1092A4011092A3011092A20110923D
:100CA000A101CCCE26013701E89477F82FEF3FEF72
:100CB0004FE75FE7C301B2010E94040981110DC033
:100CC0002FEF3FEF4FE75FE7C301B2010E94AC0790
:100CD00018161CF48CE791E053CF2FEF3FEF4FE74E
:100CE0005FE4C701B6010E94920818161CF480E860
:100CF00091E046CF2FEF3FEF4FE75FECC701B60122
:100D00000E94AC0787FDF3CF20E030E0A901C701C6
:100D1000B6010E94AC0787FF09C06DE28DEA91E041
:100D20000E943601F7FAF094F7F8F0942AE037EDD4
:100D300043EA5BE3C701B6010E9440072B013C0177
:100D40000E94B1076B017C010E94E0079B01AC018E
:100D5000C301B2010E943F072B013C014AE0C701D9
:100D6000B6010E9487026EE28DEA91E00E94360190
:100D700020E030E040E251E4C301B2010E94970854
:100D80002B013C010E94B1076B01F12CE12C4AE0E0
:100D9000C701B6010E948702C701B6010E94E007A1
:100DA0009B01AC01C301B2010E943F0720E030E08B
:100DB00040E251E40E9497080E94B10790E080E071
:100DC0004AE00E948702DECE019709F01FCF109201
:100DD000A2011092A1011092A4011092A30116CFBA
:100DE00080938D0190938E01A0938F01B093900119
:100DF0000DCF8130910539F461E088E00E94F50162
:100E000060E089E014CF8230910531F460E088E041
:100E10000E94F50161E0F5CF039709F00ACF60E089
:100E20008BE0F6CFEDEAF1E01382128288EE93E0D8
:100E3000A0E0B0E084839583A683B78388E091E047
:100E40009183808385EC90E09587848784EC90E0A3
:100E50009787868780EC90E0918B808B81EC90E087
:100E6000938B828B82EC90E0958B848B86EC90E068
:100E7000978B868B118E128E138E148E0895505878
:100E8000BB27AA270E9457070C9458080E944A08BB
:100E900038F00E94510820F039F49F3F19F426F4ED
:100EA0000C9447080EF4E095E7FB0C944108E92FF9
:100EB0000E94690858F3BA176207730784079507F9
:100EC00020F079F4A6F50C948B080EF4E0950B2E27
:100ED000BA2FA02D0B01B90190010C01CA01A0018C
:100EE0001124FF27591B99F0593F50F4503E68F1E7
:100EF0001A16F040A22F232F342F4427585FF3CF28
:100F0000469537952795A795F0405395C9F77EF4F8
:100F10001F16BA0B620B730B840BBAF09150A1F041
:100F2000FF0FBB1F661F771F881FC2F70EC0BA0FC7
:100F3000621F731F841F48F4879577956795B7954F
:100F4000F7959E3F08F0B0CF9395880F08F099274A
:100F5000EE0F9795879508950E941D0808F481E08B
:100F600008950E94710888F09F5798F0B92F99272B
:100F7000B751B0F0E1F0660F771F881F991F1AF084
:100F8000BA95C9F714C0B13091F00E948B08B1E056
:100F900008950C948B08672F782F8827B85F39F055
:100FA000B93FCCF3869577956795B395D9F73EF41D
:100FB00090958095709561957F4F8F4F9F4F0895C5
:100FC000E89409C097FB3EF49095809570956195E3
:100FD0007F4F8F4F9F4F9923A9F0F92F96E9BB2799
:100FE0009395F695879577956795B795F111F8CF15
:100FF000FAF4BB0F11F460FF1BC06F5F7F4F8F4F80
:101000009F4F16C0882311F096E911C0772321F075
:101010009EE8872F762F05C0662371F096E8862F0D
:1010200070E060E02AF09A95660F771F881FDAF764
:10103000880F9695879597F90895990F0008550F91
:10104000AA0BE0E8FEEF16161706E807F907C0F04E
:1010500012161306E407F50798F0621B730B840B56
:10106000950B39F40A2661F0232B242B252B21F430
:1010700008950A2609F4A140A6958FEF811D811DD0
:10108000089597F99F6780E870E060E008959FEF0A
:1010900080EC089500240A9416161706180609060F
:1010A000089500240A9412161306140605060895DE
:1010B000092E0394000C11F4882352F0BB0F40F466
:1010C000BF2B11F460FF04C06F5F7F4F8F4F9F4FA6
:1010D000089557FD9058440F551F59F05F3F71F028
:1010E0004795880F97FB991F61F09F3F79F087958F
:1010F0000895121613061406551FF2CF4695F1DF18
:1011000008C0161617061806991FF1CF86957105A7
:10111000610508940895E894BB2766277727CB01DB
:1011200097F908950E941D0808F48FEF08950E9412
:10113000AA080C9458080E944A0838F00E945108E6
:1011400020F0952311F00C9441080C9447081124C9
:101150000C948C080E94690870F3959FC1F3950F59
:1011600050E0551F629FF001729FBB27F00DB11D2B
:10117000639FAA27F00DB11DAA1F649F6627B00DBB
:10118000A11D661F829F2227B00DA11D621F739FA4
:10119000B00DA11D621F839FA00D611D221F749FB2
:1011A0003327A00D611D231F849F600D211D822FF9
:1011B000762F6A2F11249F5750409AF0F1F0882320
:1011C0004AF0EE0FFF1FBB1F661F771F881F91504D
:1011D0005040A9F79E3F510580F00C9441080C94B3
:1011E0008C085F3FE4F3983ED4F386957795679536
:1011F000B795F795E7959F5FC1F7FE2B880F911D77
:101200009695879597F908950E941D08880B990B6C
:10121000089597FB072E16F4009407D077FD09D0A8
:101220000E943F0907FC05D03EF4909581959F4FA1
:101230000895709561957F4F0895A1E21A2EAA1B1B
:10124000BB1BFD010DC0AA1FBB1FEE1FFF1FA21776
:10125000B307E407F50720F0A21BB30BE40BF50B73
:10126000661F771F881F991F1A9469F760957095FC
:10127000809590959B01AC01BD01CF010895AA1BFB
:10128000BB1B51E107C0AA1FBB1FA617B70710F071
:10129000A61BB70B881F991F5A95A9F780959095A3
:1012A000BC01CD010895EE0FFF1F0590F491E02DD4
:0612B0000994F894FFCF41
:1012B600790279020000000036019600C30083011E
:1012C600F400D200E6000D0A0044616E67206E68E5
:1012D600616E206C6564200044616E67206E6861F3
:1012E6006E0044656E20312073616E670044656E42
:1012F60020322073616E670044616E67206E6861FC
:101306006E206D6F746F72006D6F746F72206368FC
:10131600617900090909090052504D3A2000202040
:1013260020004D2F733A20006E616E00696E6600D4
:041336006F76660068
:00000001FF
